{
  "contractName": "KycBlockChain",
  "abi": [
    {
      "constant": true,
      "inputs": [
        {
          "internalType": "uint256",
          "name": "",
          "type": "uint256"
        }
      ],
      "name": "Banks",
      "outputs": [
        {
          "internalType": "address",
          "name": "",
          "type": "address"
        }
      ],
      "payable": false,
      "stateMutability": "view",
      "type": "function"
    },
    {
      "constant": true,
      "inputs": [
        {
          "internalType": "uint256",
          "name": "",
          "type": "uint256"
        }
      ],
      "name": "Requests",
      "outputs": [
        {
          "internalType": "address",
          "name": "",
          "type": "address"
        }
      ],
      "payable": false,
      "stateMutability": "view",
      "type": "function"
    },
    {
      "constant": true,
      "inputs": [],
      "name": "bankslength",
      "outputs": [
        {
          "internalType": "uint256",
          "name": "",
          "type": "uint256"
        }
      ],
      "payable": false,
      "stateMutability": "view",
      "type": "function"
    },
    {
      "constant": true,
      "inputs": [],
      "name": "isOrg",
      "outputs": [
        {
          "internalType": "bool",
          "name": "",
          "type": "bool"
        }
      ],
      "payable": false,
      "stateMutability": "view",
      "type": "function"
    },
    {
      "constant": true,
      "inputs": [],
      "name": "isCus",
      "outputs": [
        {
          "internalType": "bool",
          "name": "",
          "type": "bool"
        }
      ],
      "payable": false,
      "stateMutability": "view",
      "type": "function"
    },
    {
      "constant": false,
      "inputs": [
        {
          "internalType": "string",
          "name": "_name",
          "type": "string"
        },
        {
          "internalType": "string",
          "name": "_hash",
          "type": "string"
        },
        {
          "internalType": "address",
          "name": "_bank",
          "type": "address"
        }
      ],
      "name": "newCustomer",
      "outputs": [
        {
          "internalType": "bool",
          "name": "",
          "type": "bool"
        }
      ],
      "payable": true,
      "stateMutability": "payable",
      "type": "function"
    },
    {
      "constant": false,
      "inputs": [
        {
          "internalType": "string",
          "name": "_name",
          "type": "string"
        }
      ],
      "name": "newOrganisation",
      "outputs": [
        {
          "internalType": "bool",
          "name": "",
          "type": "bool"
        }
      ],
      "payable": true,
      "stateMutability": "payable",
      "type": "function"
    },
    {
      "constant": true,
      "inputs": [
        {
          "internalType": "address",
          "name": "_address",
          "type": "address"
        }
      ],
      "name": "viewCustomerData",
      "outputs": [
        {
          "internalType": "string",
          "name": "",
          "type": "string"
        }
      ],
      "payable": false,
      "stateMutability": "view",
      "type": "function"
    },
    {
      "constant": false,
      "inputs": [
        {
          "internalType": "string",
          "name": "_name",
          "type": "string"
        },
        {
          "internalType": "string",
          "name": "_hash",
          "type": "string"
        },
        {
          "internalType": "address",
          "name": "_bank",
          "type": "address"
        }
      ],
      "name": "modifyCustomerData",
      "outputs": [
        {
          "internalType": "bool",
          "name": "",
          "type": "bool"
        }
      ],
      "payable": true,
      "stateMutability": "payable",
      "type": "function"
    },
    {
      "constant": false,
      "inputs": [],
      "name": "checkStatus",
      "outputs": [
        {
          "internalType": "enum KYC_Functions.Status",
          "name": "",
          "type": "uint8"
        }
      ],
      "payable": false,
      "stateMutability": "nonpayable",
      "type": "function"
    },
    {
      "constant": false,
      "inputs": [
        {
          "internalType": "address",
          "name": "_custaddress",
          "type": "address"
        }
      ],
      "name": "changeStatusToAccepted",
      "outputs": [],
      "payable": true,
      "stateMutability": "payable",
      "type": "function"
    },
    {
      "constant": false,
      "inputs": [
        {
          "internalType": "address",
          "name": "_custaddress",
          "type": "address"
        }
      ],
      "name": "changeStatusToRejected",
      "outputs": [],
      "payable": true,
      "stateMutability": "payable",
      "type": "function"
    },
    {
      "constant": true,
      "inputs": [],
      "name": "viewRequests",
      "outputs": [
        {
          "internalType": "address[]",
          "name": "",
          "type": "address[]"
        }
      ],
      "payable": false,
      "stateMutability": "view",
      "type": "function"
    },
    {
      "constant": true,
      "inputs": [
        {
          "internalType": "address",
          "name": "_address",
          "type": "address"
        }
      ],
      "name": "viewName",
      "outputs": [
        {
          "internalType": "string",
          "name": "",
          "type": "string"
        }
      ],
      "payable": false,
      "stateMutability": "view",
      "type": "function"
    }
  ],
  "bytecode": "0x6080604052600060025534801561001557600080fd5b50611dd3806100256000396000f3fe6080604052600436106100dc5760003560e01c806360f949d91161007f578063aeb61c7c11610059578063aeb61c7c14610690578063b8d7ec2d1461070b578063d327522814610895578063da724c0d146108c4576100dc565b806360f949d9146105575780638a53fd1114610582578063972c7387146105c6576100dc565b806331d823ac116100bb57806331d823ac146104085780633b7104f21461043757806340ac999314610470578063521e686d146104eb576100dc565b8062699429146100e15780630320403c146101ab57806305c5bf4c14610335575b600080fd5b3480156100ed57600080fd5b506101306004803603602081101561010457600080fd5b81019080803573ffffffffffffffffffffffffffffffffffffffff169060200190929190505050610908565b6040518080602001828103825283818151815260200191508051906020019080838360005b83811015610170578082015181840152602081019050610155565b50505050905090810190601f16801561019d5780820380516001836020036101000a031916815260200191505b509250505060405180910390f35b61031b600480360360608110156101c157600080fd5b81019080803590602001906401000000008111156101de57600080fd5b8201836020820111156101f057600080fd5b8035906020019184600183028401116401000000008311171561021257600080fd5b91908080601f016020809104026020016040519081016040528093929190818152602001838380828437600081840152601f19601f8201169050808301925050505050505091929192908035906020019064010000000081111561027557600080fd5b82018360208201111561028757600080fd5b803590602001918460018302840111640100000000831117156102a957600080fd5b91908080601f016020809104026020016040519081016040528093929190818152602001838380828437600081840152601f19601f820116905080830192505050505050509192919290803573ffffffffffffffffffffffffffffffffffffffff169060200190929190505050610af9565b604051808215151515815260200191505060405180910390f35b6103ee6004803603602081101561034b57600080fd5b810190808035906020019064010000000081111561036857600080fd5b82018360208201111561037a57600080fd5b8035906020019184600183028401116401000000008311171561039c57600080fd5b91908080601f016020809104026020016040519081016040528093929190818152602001838380828437600081840152601f19601f820116905080830192505050505050509192919290505050610caf565b604051808215151515815260200191505060405180910390f35b34801561041457600080fd5b5061041d610ea6565b604051808215151515815260200191505060405180910390f35b34801561044357600080fd5b5061044c610f0e565b6040518082600281111561045c57fe5b60ff16815260200191505060405180910390f35b34801561047c57600080fd5b506104a96004803603602081101561049357600080fd5b8101908080359060200190929190505050611084565b604051808273ffffffffffffffffffffffffffffffffffffffff1673ffffffffffffffffffffffffffffffffffffffff16815260200191505060405180910390f35b3480156104f757600080fd5b506105006110c0565b6040518080602001828103825283818151815260200191508051906020019060200280838360005b83811015610543578082015181840152602081019050610528565b505050509050019250505060405180910390f35b34801561056357600080fd5b5061056c611208565b6040518082815260200191505060405180910390f35b6105c46004803603602081101561059857600080fd5b81019080803573ffffffffffffffffffffffffffffffffffffffff16906020019092919050505061120e565b005b3480156105d257600080fd5b50610615600480360360208110156105e957600080fd5b81019080803573ffffffffffffffffffffffffffffffffffffffff1690602001909291905050506113fb565b6040518080602001828103825283818151815260200191508051906020019080838360005b8381101561065557808201518184015260208101905061063a565b50505050905090810190601f1680156106825780820380516001836020036101000a031916815260200191505b509250505060405180910390f35b34801561069c57600080fd5b506106c9600480360360208110156106b357600080fd5b8101908080359060200190929190505050611559565b604051808273ffffffffffffffffffffffffffffffffffffffff1673ffffffffffffffffffffffffffffffffffffffff16815260200191505060405180910390f35b61087b6004803603606081101561072157600080fd5b810190808035906020019064010000000081111561073e57600080fd5b82018360208201111561075057600080fd5b8035906020019184600183028401116401000000008311171561077257600080fd5b91908080601f016020809104026020016040519081016040528093929190818152602001838380828437600081840152601f19601f820116905080830192505050505050509192919290803590602001906401000000008111156107d557600080fd5b8201836020820111156107e757600080fd5b8035906020019184600183028401116401000000008311171561080957600080fd5b91908080601f016020809104026020016040519081016040528093929190818152602001838380828437600081840152601f19601f820116905080830192505050505050509192919290803573ffffffffffffffffffffffffffffffffffffffff169060200190929190505050611595565b604051808215151515815260200191505060405180910390f35b3480156108a157600080fd5b506108aa6118d6565b604051808215151515815260200191505060405180910390f35b610906600480360360208110156108da57600080fd5b81019080803573ffffffffffffffffffffffffffffffffffffffff16906020019092919050505061193e565b005b60606109126118d6565b610984576040517f08c379a000000000000000000000000000000000000000000000000000000000815260040180806020018281038252600d8152602001807f4163636573732044656e6965640000000000000000000000000000000000000081525060200191505060405180910390fd5b600360008373ffffffffffffffffffffffffffffffffffffffff1673ffffffffffffffffffffffffffffffffffffffff16815260200190815260200160002060020160149054906101000a900460ff1615610abb57600360008373ffffffffffffffffffffffffffffffffffffffff1673ffffffffffffffffffffffffffffffffffffffff1681526020019081526020016000206001018054600181600116156101000203166002900480601f016020809104026020016040519081016040528092919081815260200182805460018160011615610100020316600290048015610aaf5780601f10610a8457610100808354040283529160200191610aaf565b820191906000526020600020905b815481529060010190602001808311610a9257829003601f168201915b50505050509050610af4565b6040518060400160405280602081526020017f4e6f207375636820437573746f6d657220696e2074686520646174616261736581525090505b919050565b6000610b03610ea6565b610b75576040517f08c379a00000000000000000000000000000000000000000000000000000000081526004018080602001828103825260168152602001807f596f7520617265206e6f74206120637573746f6d65720000000000000000000081525060200191505060405180910390fd5b83600360003373ffffffffffffffffffffffffffffffffffffffff1673ffffffffffffffffffffffffffffffffffffffff1681526020019081526020016000206000019080519060200190610bcb929190611c75565b5082600360003373ffffffffffffffffffffffffffffffffffffffff1673ffffffffffffffffffffffffffffffffffffffff1681526020019081526020016000206001019080519060200190610c22929190611c75565b5081600360003373ffffffffffffffffffffffffffffffffffffffff1673ffffffffffffffffffffffffffffffffffffffff16815260200190815260200160002060020160006101000a81548173ffffffffffffffffffffffffffffffffffffffff021916908373ffffffffffffffffffffffffffffffffffffffff160217905550600190509392505050565b6000610cb96118d6565b15610d0f576040517f08c379a0000000000000000000000000000000000000000000000000000000008152600401808060200182810382526032815260200180611d456032913960400191505060405180910390fd5b81600460003373ffffffffffffffffffffffffffffffffffffffff1673ffffffffffffffffffffffffffffffffffffffff1681526020019081526020016000206000019080519060200190610d65929190611c75565b506001600460003373ffffffffffffffffffffffffffffffffffffffff1673ffffffffffffffffffffffffffffffffffffffff16815260200190815260200160002060010160006101000a81548160ff0219169083151502179055506001600460003373ffffffffffffffffffffffffffffffffffffffff1673ffffffffffffffffffffffffffffffffffffffff16815260200190815260200160002060010160016101000a81548160ff02191690836001811115610e2057fe5b021790555060003390806001815401808255809150509060018203906000526020600020016000909192909190916101000a81548173ffffffffffffffffffffffffffffffffffffffff021916908373ffffffffffffffffffffffffffffffffffffffff1602179055505060026000815480929190600101919050555060019050919050565b6000600360003373ffffffffffffffffffffffffffffffffffffffff1673ffffffffffffffffffffffffffffffffffffffff16815260200190815260200160002060020160149054906101000a900460ff1615610f065760019050610f0b565b600090505b90565b6000610f18610ea6565b610f8a576040517f08c379a00000000000000000000000000000000000000000000000000000000081526004018080602001828103825260168152602001807f596f7520617265206e6f74206120637573746f6d65720000000000000000000081525060200191505060405180910390fd5b6000600360003373ffffffffffffffffffffffffffffffffffffffff1673ffffffffffffffffffffffffffffffffffffffff16815260200190815260200160002060020160009054906101000a900473ffffffffffffffffffffffffffffffffffffffff169050600460008273ffffffffffffffffffffffffffffffffffffffff1673ffffffffffffffffffffffffffffffffffffffff16815260200190815260200160002060020160003373ffffffffffffffffffffffffffffffffffffffff1673ffffffffffffffffffffffffffffffffffffffff16815260200190815260200160002060009054906101000a900460ff1691505090565b6001818154811061109157fe5b906000526020600020016000915054906101000a900473ffffffffffffffffffffffffffffffffffffffff1681565b60606110ca6118d6565b61113c576040517f08c379a00000000000000000000000000000000000000000000000000000000081526004018080602001828103825260158152602001807f596f7520617265206e6f74205065726d6974746564000000000000000000000081525060200191505060405180910390fd5b600460003373ffffffffffffffffffffffffffffffffffffffff1673ffffffffffffffffffffffffffffffffffffffff1681526020019081526020016000206003018054806020026020016040519081016040528092919081815260200182805480156111fe57602002820191906000526020600020905b8160009054906101000a900473ffffffffffffffffffffffffffffffffffffffff1673ffffffffffffffffffffffffffffffffffffffff16815260200190600101908083116111b4575b5050505050905090565b60025481565b6112166118d6565b61126b576040517f08c379a000000000000000000000000000000000000000000000000000000000815260040180806020018281038252602a815260200180611d1b602a913960400191505060405180910390fd5b6000600360008373ffffffffffffffffffffffffffffffffffffffff1673ffffffffffffffffffffffffffffffffffffffff16815260200190815260200160002060020160009054906101000a900473ffffffffffffffffffffffffffffffffffffffff1690503373ffffffffffffffffffffffffffffffffffffffff168173ffffffffffffffffffffffffffffffffffffffff1614611356576040517f08c379a0000000000000000000000000000000000000000000000000000000008152600401808060200182810382526028815260200180611d776028913960400191505060405180910390fd5b6001600460003373ffffffffffffffffffffffffffffffffffffffff1673ffffffffffffffffffffffffffffffffffffffff16815260200190815260200160002060020160008473ffffffffffffffffffffffffffffffffffffffff1673ffffffffffffffffffffffffffffffffffffffff16815260200190815260200160002060006101000a81548160ff021916908360028111156113f257fe5b02179055505050565b60606114056118d6565b611477576040517f08c379a00000000000000000000000000000000000000000000000000000000081526004018080602001828103825260138152602001807f4e6f7420616e204f7267616e69736174696f6e0000000000000000000000000081525060200191505060405180910390fd5b600360008373ffffffffffffffffffffffffffffffffffffffff1673ffffffffffffffffffffffffffffffffffffffff1681526020019081526020016000206000018054600181600116156101000203166002900480601f01602080910402602001604051908101604052809291908181526020018280546001816001161561010002031660029004801561154d5780601f106115225761010080835404028352916020019161154d565b820191906000526020600020905b81548152906001019060200180831161153057829003601f168201915b50505050509050919050565b6000818154811061156657fe5b906000526020600020016000915054906101000a900473ffffffffffffffffffffffffffffffffffffffff1681565b600061159f610ea6565b15611612576040517f08c379a00000000000000000000000000000000000000000000000000000000081526004018080602001828103825260188152602001807f437573746f6d657220416c72656164792045786973747321000000000000000081525060200191505060405180910390fd5b600460008373ffffffffffffffffffffffffffffffffffffffff1673ffffffffffffffffffffffffffffffffffffffff16815260200190815260200160002060010160009054906101000a900460ff166116d4576040517f08c379a000000000000000000000000000000000000000000000000000000000815260040180806020018281038252600d8152602001807f4e6f20737563682042616e6b210000000000000000000000000000000000000081525060200191505060405180910390fd5b83600360003373ffffffffffffffffffffffffffffffffffffffff1673ffffffffffffffffffffffffffffffffffffffff168152602001908152602001600020600001908051906020019061172a929190611c75565b5082600360003373ffffffffffffffffffffffffffffffffffffffff1673ffffffffffffffffffffffffffffffffffffffff1681526020019081526020016000206001019080519060200190611781929190611c75565b5081600360003373ffffffffffffffffffffffffffffffffffffffff1673ffffffffffffffffffffffffffffffffffffffff16815260200190815260200160002060020160006101000a81548173ffffffffffffffffffffffffffffffffffffffff021916908373ffffffffffffffffffffffffffffffffffffffff1602179055506001600360003373ffffffffffffffffffffffffffffffffffffffff1673ffffffffffffffffffffffffffffffffffffffff16815260200190815260200160002060020160146101000a81548160ff0219169083151502179055506000600360003373ffffffffffffffffffffffffffffffffffffffff1673ffffffffffffffffffffffffffffffffffffffff16815260200190815260200160002060020160156101000a81548160ff021916908360018111156118bd57fe5b02179055506118cb82611b2b565b600190509392505050565b6000600460003373ffffffffffffffffffffffffffffffffffffffff1673ffffffffffffffffffffffffffffffffffffffff16815260200190815260200160002060010160009054906101000a900460ff1615611936576001905061193b565b600090505b90565b6119466118d6565b61199b576040517f08c379a000000000000000000000000000000000000000000000000000000000815260040180806020018281038252602a815260200180611d1b602a913960400191505060405180910390fd5b6000600360008373ffffffffffffffffffffffffffffffffffffffff1673ffffffffffffffffffffffffffffffffffffffff16815260200190815260200160002060020160009054906101000a900473ffffffffffffffffffffffffffffffffffffffff1690503373ffffffffffffffffffffffffffffffffffffffff168173ffffffffffffffffffffffffffffffffffffffff1614611a86576040517f08c379a0000000000000000000000000000000000000000000000000000000008152600401808060200182810382526028815260200180611d776028913960400191505060405180910390fd5b6000600460003373ffffffffffffffffffffffffffffffffffffffff1673ffffffffffffffffffffffffffffffffffffffff16815260200190815260200160002060020160008473ffffffffffffffffffffffffffffffffffffffff1673ffffffffffffffffffffffffffffffffffffffff16815260200190815260200160002060006101000a81548160ff02191690836002811115611b2257fe5b02179055505050565b6002600460008373ffffffffffffffffffffffffffffffffffffffff1673ffffffffffffffffffffffffffffffffffffffff16815260200190815260200160002060020160003373ffffffffffffffffffffffffffffffffffffffff1673ffffffffffffffffffffffffffffffffffffffff16815260200190815260200160002060006101000a81548160ff02191690836002811115611bc757fe5b0217905550600460008273ffffffffffffffffffffffffffffffffffffffff1673ffffffffffffffffffffffffffffffffffffffff1681526020019081526020016000206003013390806001815401808255809150509060018203906000526020600020016000909192909190916101000a81548173ffffffffffffffffffffffffffffffffffffffff021916908373ffffffffffffffffffffffffffffffffffffffff1602179055505050565b828054600181600116156101000203166002900490600052602060002090601f016020900481019282601f10611cb657805160ff1916838001178555611ce4565b82800160010185558215611ce4579182015b82811115611ce3578251825591602001919060010190611cc8565b5b509050611cf19190611cf5565b5090565b611d1791905b80821115611d13576000816000905550600101611cfb565b5090565b9056fe596f7520617265206e6f74207065726d697474656420746f2075736520746869732066756e6374696f6e4f7267616e69736174696f6e20616c7265616479206578697374732077697468207468652073616d65206164647265737321596f7520646f6e7420686176652061636365737320746f2076657269667920746869732064617461a265627a7a723158205a09eb528e1e022c6e4b4255c40afeb5f4e46992562776e76bc2ac5e4bc7f40464736f6c63430005100032",
  "source": "pragma solidity >=0.4.21 <0.7.0;\n\ninterface KYC_Functions{\n    enum Status {Accepted, Rejected, Pending}\n    // Checks if the current address is an Organisation(Bank) or not \n    function isOrg() external view returns(bool);\n    // Checks if the current address is an Customer or not \n    function isCus() external view returns(bool);\n    // A function to register as a new customer to get your KYC checked by a bank\n    function newCustomer(string calldata _name, string calldata _hash, address _bank) external payable returns(bool);\n    // A function that allows you to be a bank and audit KYC data of customers\n    function newOrganisation(string calldata _name) external payable returns(bool);\n    // A function which is only visible to the bankers so they can verify the data\n    function viewCustomerData(address _address) external view returns(string memory);\n    // Customers also can change the their data if the KYC request gets rejected\n    function modifyCustomerData(string calldata _name,string calldata _hash, address _bank) \n    external payable returns(bool);\n    // Checks the status of a customers KYC Request (Approved or Rejected or Pending)\n    function checkStatus() external returns(Status);\n    // Function that can change the status of a request (Only for banks)\n    function changeStatusToAccepted(address _custaddress) external payable;\n    // Function that can change the status of a request (Only for banks)\n    function changeStatusToRejected(address _custaddress) external payable;\n    // A function that enables the bank to lookup at all the KYC requests pointed at it\n    function viewRequests() external view returns(address[] memory);\n    // A function that returns the name of a customer\n    function viewName(address _address) external view returns(string memory);\n\n}\n\ncontract KycBlockChain is KYC_Functions{\n\n    address[] public Banks;\n    address[] public Requests;\n    uint public bankslength=0;\n\n    enum Entity { Customer, Organisation } \n    \n\n    struct Customer{\n        string c_name;\n        string data_hash;\n        address bank_address;\n        bool exists;\n        Entity entity;\n    }\n\n    struct Organisation{\n        string b_name;\n        bool exists;\n        Entity entity;\n        mapping(address => Status) requests;\n        address[] allrequests;\n    }\n\n    mapping(address => Customer) allCustomers;\n    mapping(address => Organisation) allOrganisations;\n\n    function isOrg() public view returns(bool){\n        if(allOrganisations[msg.sender].exists){\n            return true;\n        }\n        return false;\n    }\n\n    function isCus() public view returns(bool){\n        if(allCustomers[msg.sender].exists){\n            return true;\n        }\n        return false;\n    } \n\n    function newCustomer(string memory _name, string memory _hash, address _bank) public payable returns(bool){\n        require(!isCus(),\"Customer Already Exists!\");\n        require(allOrganisations[_bank].exists,\"No such Bank!\");\n        allCustomers[msg.sender].c_name = _name;\n        allCustomers[msg.sender].data_hash = _hash;\n        allCustomers[msg.sender].bank_address = _bank;\n        // allCustomers[msg.sender].access[msg.sender] = true;\n        allCustomers[msg.sender].exists = true;\n        allCustomers[msg.sender].entity = Entity.Customer;\n        notifyBank(_bank);\n        return true;\n\n    }\n\n    function newOrganisation(string memory _name) public payable returns(bool){\n        require(!isOrg(),\"Organisation already exists with the same address!\");\n        allOrganisations[msg.sender].b_name = _name;\n        allOrganisations[msg.sender].exists = true;\n        allOrganisations[msg.sender].entity = Entity.Organisation;\n        Banks.push(msg.sender);\n        bankslength++;\n        return true;\n    }\n\n    function viewCustomerData(address _address) public view returns(string memory){\n        require(isOrg(),\"Access Denied\");\n        if(allCustomers[_address].exists){\n            return allCustomers[_address].data_hash;\n        }\n        return \"No such Customer in the database\";\n    }\n\n    function modifyCustomerData(string memory _name,string memory _hash, address _bank) public payable returns(bool){\n        require(isCus(),\"You are not a customer\");\n        allCustomers[msg.sender].c_name = _name;\n        allCustomers[msg.sender].data_hash = _hash;\n        allCustomers[msg.sender].bank_address = _bank;\n        return true;\n    }\n\n    function notifyBank(address _bankaddress) internal {\n        allOrganisations[_bankaddress].requests[msg.sender] = Status.Pending;\n        allOrganisations[_bankaddress].allrequests.push(msg.sender);\n    }\n\n    function checkStatus() public returns(Status) {\n        require(isCus(),\"You are not a customer\");\n        address _presbank = allCustomers[msg.sender].bank_address;\n        return allOrganisations[_presbank].requests[msg.sender];\n    }\n\n    function changeStatusToAccepted(address _custaddress) public payable{\n        require(isOrg(),\"You are not permitted to use this function\");\n        address _bank = allCustomers[_custaddress].bank_address;\n        require(_bank == msg.sender,\"You dont have access to verify this data\");\n        allOrganisations[msg.sender].requests[_custaddress] = Status.Accepted;\n    }\n\n    function changeStatusToRejected(address _custaddress) public payable{\n        require(isOrg(),\"You are not permitted to use this function\");\n        address _bank = allCustomers[_custaddress].bank_address;\n        require(_bank == msg.sender,\"You dont have access to verify this data\");\n        allOrganisations[msg.sender].requests[_custaddress] = Status.Rejected;\n    }\n\n    function viewRequests() public view returns(address[] memory){\n        require(isOrg(),\"You are not Permitted\");\n        return allOrganisations[msg.sender].allrequests;\n    }\n\n    function viewName(address _address) public view returns(string memory){\n        require(isOrg(),\"Not an Organisation\");\n        return allCustomers[_address].c_name;\n    } \n\n}",
  "sourcePath": "C:/Users/user/Documents/kyc/contracts/KycBlockChain.sol",
  "compiler": {
    "name": "solc",
    "version": "0.5.16+commit.9c3226ce.Emscripten.clang"
  },
  "schemaVersion": "3.3.4",
  "updatedAt": "2022-06-30T17:42:41.141Z",
  "networkType": "ethereum",
  "devdoc": {
    "methods": {}
  },
  "userdoc": {
    "methods": {}
  }
}